:1000000009C016C049C014C013C012C011C010C02E
:100010000FC00EC011241FBECFE9CDBF20E0A0E667
:10002000B0E001C01D92A436B207E1F76CD0B5C0B4
:10003000E7CF8BB780628BBF85B3846185BB0895A2
:1000400088B3846188BB87B3836087BBC59A0895F2
:100050008FB583608FBD83B7846083BF8FB58068A1
:100060008FBD8FB580628FBD0895379A319AA39A5C
:10007000089597B1907F892B87B9369A3699FECF2C
:1000800084B195B108958FB58F778FBD8FB58F7D72
:100090008FBDC098C19808951F920F920FB60F920E
:1000A00011242F938F939F932FEF86E791E0215098
:1000B00080409040E1F700C00000B2990BC09091E1
:1000C000620081E0892780936200809162008093C2
:1000D000610011C0B4990FC0809163008F5F80935D
:1000E000630080916300833011F41092630080916B
:1000F0006300809360009F918F912F910F900FBEAE
:100100000F901F90189578949BDFAFDFA1DF91DFF0
:10011000809161008823D9F18130D1F7809160000E
:100120008130E9F098F0823099F788B3836088BB1A
:100130008FB580688FBD8FB580628FBD83E099DFFA
:10014000969587959695879586BF19C0C19A8FB564
:1001500080628FBD8FB58F778FBDC09810C0C09A59
:100160008FB580688FBD8FB58F7D8FBDC19883E0BF
:1001700080DF969587959695879586BFC9CF83E052
:1001800078DF969587959695879589BDC1CF7BDF5A
:0E0190001092600010926300BBCFF894FFCF76
:00000001FF
